:020000040800F2
:10000000005000207101000800F002F800F03AF8FA
:100010000AA090E8000C82448344AAF10107DA4563
:1000200001D100F02FF8AFF2090EBAE80F0013F07B
:10003000010F18BFFB1A43F001031847A019000075
:10004000E0190000103A24BF78C878C1FAD85207E6
:1000500024BF30C830C144BF04680C607047000042
:100060000023002400250026103A28BF78C1FBD8C1
:10007000520728BF30C148BF0B6070471FB51FBD76
:1000800010B510BD00F036F81146FFF7F7FF01F08C
:1000900095FC00F054F803B4FFF7F2FF03BC01F045
:1000A00092F900000948804709480047FEE7FEE74B
:1000B000FEE7FEE7FEE7FEE7FEE7FEE7FEE7FEE718
:1000C00004480549054A064B70470000B110000876
:1000D000090000080018002000280020002000204F
:1000E00000200020704770477047704700487047F5
:1000F000E00300207546FFF7F9FFAE4605006946AC
:10010000534620F00700854618B020B5FFF7D8FF0A
:10011000BDE820404FF000064FF000074FF0000808
:100120004FF0000B21F00701AC46ACE8C009ACE889
:10013000C009ACE8C009ACE8C0098D46704710B5ED
:100140000446AFF300802046BDE81040FFF7A3BF90
:1001500004E010F8013B01F8013B521E002AF8D1DF
:10016000704702E000F8011B521E002AFAD17047C6
:1001700010B504460A4A0B490B48FFF7E9FF0B4A42
:100180000B490C48FFF7E4FF0B4A00210B48FFF72F
:10019000E8FF01F013FB0020FFF736FF10BD000061
:1001A00030010000000000201C1A00086C00000054
:1001B000300100204C1B0008A40200009C0100201C
:1001C00021B1826842F00102826003E0826822F07D
:1001D00001028260704721B1826842F480728260BD
:1001E00003E0826822F480728260704710B5044692
:1001F0001248844208D10121401500F01BFD002166
:10020000601500F017FD17E00D48844208D1012168
:10021000001500F00FFD0021201500F00BFD0BE094
:100220000848844208D10121C80300F003FD0021E1
:100230004FF4004000F0FEFC10BD0000002401401F
:1002400000280140003C0140014600208A6802F07D
:1002500004020AB1012000E000207047014600209E
:100260008A6802F008020AB1012000E0002070470D
:1002700030B502460020002350680F4C20400D7915
:100280000C6844EA05242043506090680B4C2040E1
:10029000D1E902542C434D7944EA4504204390604F
:1002A000D06A20F470000C7C641EE4B2234340EA60
:1002B0000350D06230BD0000FFFEF0FFFDF7F1FFFC
:1002C000F0B504460D4600200021092D11DDE0683F
:1002D000A5F10A0606EB4607072606FA07F188434A
:1002E000A5F10A0606EB460603FA06F10843E060AC
:1002F0000CE0206905EB4507072606FA07F188435D
:1003000005EB450603FA06F108432061072A0FDAD8
:10031000606B561E06EB86071F2606FA07F1884318
:10032000561E06EB860605FA06F10843606322E0D6
:100330000D2A0FDA206BD61F06EB86071F2606FA5A
:1003400007F18843D61F06EB860605FA06F1084337
:10035000206310E0E06AA2F10D0606EB86071F2677
:1003600006FA07F18843A2F10D0606EB860605FAA8
:1003700006F10843E062F0BD816841F00801816048
:10038000704721B1826842F4A002826003E0826873
:1003900022F4A00282607047816841F0040181600C
:1003A000704710B500F0DAFA01F07EFA01F052F869
:1003B00010BD00BFFEE7000070B5022000F0FAF8A3
:1003C00068B300211648FFF7FBFE00250DE0154835
:1003D00030F8150005EB8501134A02EB4101134A81
:1003E000127821F81200681CC5B2032DEFDB00BFA4
:1003F00000BFEFF31081084672B6044600BF0B48F9
:100400000078401C0949087001200949087000BFA4
:1004100000BF84F3108800BF00BF00F00BF870BD70
:100420000024014074010020B00300208601002058
:100430008701002000F0805111B10349086001E0FC
:100440000249486070470000040402400000024076
:1004500021B1026842F00102026004E002684FF636
:10046000FE731A400260704701684FF6FE72114039
:1004700001600021016041608160C1604B49884298
:1004800008D14A490839496841F00F01474A083AFA
:1004900051608AE045491431884208D143490839FE
:1004A000496841F0F001414A083A51607DE03F4916
:1004B0002831884208D13D490839496841F47061C2
:1004C0003A4A083A516070E038493C31884208D1D4
:1004D00036490839496841F47041344A083A516054
:1004E00063E032495031884208D1304908394968BF
:1004F00041F470212D4A083A516056E02B4964318D
:10050000884208D129490839496841F47001274ACD
:10051000083A516049E025497831884208D1234999
:100520000839496841F07061204A083A51603CE05E
:100530001F49884206D1011F096841F00F01021FBF
:10054000116032E01A491431884208D11849091F54
:10055000096841F0F001164A121F116025E01449A4
:100560002831884208D11249091F096841F4706195
:100570000F4A121F116018E00D493C31884208D122
:100580000B49091F096841F47041094A121F1160A3
:100590000BE007495031884207D10549091F096816
:1005A00041F47021024A121F116070470800024096
:1005B0000804024001460020002201F0805313B1DC
:1005C000054B1A6801E0054B1A6802EA01030BB1FA
:1005D000012000E0002070470004024000000240BB
:1005E0001AB103680B43036002E003688B430360A6
:1005F000704710B50022026847F6F0739A430C6A00
:100600008B6823430C6923434C6923438C69234340
:10061000CC6923434C6A23438C6A23431A43026008
:10062000CB6843600B6883604B68C36010BD704744
:100630000549096821F01001034A11601146096853
:100640000143116070470000002002400146002075
:10065000034A106800F0380008431060704700003B
:100660000020024003460BB90020704719605A6011
:10067000186898601868D860002018610120F4E7B5
:10068000014609B900207047086908B90120FAE756
:100690000020F8E7014609B9002070474A68086958
:1006A000904201D10120F8E70020F6E702460AB99E
:1006B00000207047106908B90220FAE790680078B6
:1006C0000870D2E900031844401E9368984201D193
:1006D000106801E09068401C90601069401E106135
:1006E0000120E6E702460AB9002070475368106906
:1006F000984201D10220F8E7D0680170D2E90003E6
:100700001844401ED368984201D1106801E0D068B7
:10071000401CD0601069401C10610120E5E72DE904
:10072000F041024600250026002000230024002777
:1007300091F803C00CF00F0591F803C00CF0100CF9
:10074000BCF1000F03D091F802C04CEA050591F806
:1007500000C0BCF1000F31D0146800202BE04FF036
:10076000010C0CFA00F3B1F800C00CEA03069E423B
:1007700020D183004FF00F0C0CFA03F7BC4305FAAD
:1007800003FC4CEA040491F803C0BCF1280F06D125
:100790004FF0010C0CFA00FCC2F814C00AE091F80A
:1007A00003C0BCF1480F05D14FF0010C0CFA00FC5E
:1007B000C2F810C0401C0828D1D31460B1F800C0A2
:1007C000BCF1FF0F34DD546800202EE000F1080C6E
:1007D0004FF0010808FA0CF3B1F800C00CEA030668
:1007E0009E4221D183004FF00F0C0CFA03F7BC435B
:1007F00005FA03FC4CEA040491F803C0BCF1280F8D
:1008000005D100F1080C08FA0CF8C2F8148091F830
:1008100003C0BCF1480F07D100F1080C4FF00108EC
:1008200008FA0CF8C2F81080401C0828CED3546097
:10083000BDE8F0810246002093680B400BB1012017
:1008400000E00020704702460020D3680B400BB147
:10085000012000E0002070470AB1016100E0416121
:10086000704700002DE9F041002513484068044618
:100870001CE000F04DFF074610480668384601F0BE
:100880005DF8A068B0420DD8E06818B9204600F0C5
:1008900051F802E0E0683044A060206910B1002007
:1008A00021698847681CC5B26068044602488068B0
:1008B000A842DED8BDE8F0819C0100203001002074
:1008C0002DE9F04104460D4616461F4614B9002096
:1008D000BDE8F081204600F0A3FE08B90020F7E74C
:1008E000204600F027F800F013FF80460548006816
:1008F0003044A060404601F021F8E7602561012006
:10090000E6E700003001002010B504460CB90020D5
:1009100010BD2146064800F037FE022806D12146C8
:10092000034800F048FE012800D1F1E70220EFE77C
:100930009C01002010B504460CB9002010BD2146D2
:10094000054800F021FE012801D00220F6E72146EB
:10095000014800F050FEF1E79C01002008B501219C
:10096000082000F057F9C020ADF8000010208DF8E5
:10097000030001208DF8020069461348FFF7CFFEFF
:100980000121082000F046F94FF47040ADF8000056
:1009900010208DF8030001208DF8020069460A48F6
:1009A000FFF7BDFE0121082000F034F90120ADF869
:1009B000000028208DF8030001208DF80200694610
:1009C0000148FFF7ACFE08BD000C014010B500F077
:1009D00085F8C82217491848FFF744FEC82217496E
:1009E0001748FFF73FFE4FF4FA731A4615491648A9
:1009F000FFF766FF1448FFF787FF19231A461349CC
:100A00001348FFF75DFF1248FFF77EFF0A231A46DF
:100A100010491148FFF754FF0021012000F008FEA3
:100A200000BF0E48006840F010000C49086000BF8D
:100A300010BD0000A8010020380300207002002033
:100A40004C03002095190008600300201D170008C2
:100A5000880300201D1900087403002050010020A5
:100A60007047000010B5044608480068012802D00D
:100A7000022808D100E007E0002240F22661044885
:100A800000F004FC00E000BF00BF10BD4C010020DE
:100A90000038014038B5044600BF69460248FFF7F8
:100AA00005FE0128F9D038BD3803002038B50446CA
:100AB00069460448FFF7FAFD9DF80010024800F06F
:100AC0007CFC38BD4C0300200038014010B50446C2
:100AD000FFF7C8FE10BD00BFFEE7000010B50248DA
:100AE00000F07FFD10BD00009C01002000BFFEE76C
:100AF0007047000070B5002100230F22C47804B3B2
:100B0000154C246804F4E064C4F5E064210AC1F1E2
:100B10000403CA40447804FA03F184781440214362
:100B200009010E4C0678A155047804F01F05012434
:100B3000AC4005786D11AD0005F1E025C5F8004128
:100B400009E0047804F01F050124AC40044D067848
:100B5000761145F8264070BD0CED00E000E400E0A1
:100B600080E100E002490143024A11607047000041
:100B70000000FA050CED00E0024A0A400243024B75
:100B80001A60704780FFFF1F08ED00E0704700000B
:100B900070B5002524E00120A84013490968134AD4
:100BA000126811400840C8B100BF00BFEFF31081C8
:100BB000084672B6044600BF0120A8400A490968E9
:100BC00081430948016000BF00BF84F3108800BF63
:100BD00000BF074850F8251000208847681CC5B2A0
:100BE000062DD8D370BD0000500100205401002014
:100BF0003401002029B1064A52690243044B5A616C
:100C000004E0034A52698243014B5A617047000075
:100C10000010024029B1064A92690243044B9A61CE
:100C200004E0034A92698243014B9A6170470000D5
:100C30000010024029B1064AD2680243044BDA6030
:100C400004E0034AD2688243014BDA607047000037
:100C5000001002400F48006840F001000D49086094
:100C6000084640680C4908400A4948600846006840
:100C70000A490840074908600846006820F48020B7
:100C800008600846406820F4FE0048604FF41F00EA
:100C900088607047001002400000FFF8FFFFF6FE7A
:100CA00030B500210022002400232D4D6D6805F091
:100CB0000C0121B1042905D0082923D105E0294DD3
:100CC000056022E0274D05601FE0254D6D6805F4A5
:100CD0007012234D6D6805F48034022505EB9242B5
:100CE0001CB9214D554305600BE01D4D6D6805F4A1
:100CF00000351DB11C4D5543056002E0194D5543AB
:100D0000056002E0174D056000BF00BF144D6D681F
:100D100005F0F0010909154D6B5C0568DD40456083
:100D20000F4D6D6805F4E061090A104D6B5C456874
:100D3000DD4085600A4D6D6805F46051C90A0B4DB0
:100D40006B5C4568DD40C560054D6D6805F440414C
:100D5000890B074D6B5CC568B5FBF3F5056130BDCC
:100D60000010024000127A0000093D0088010020B6
:100D70009801002010B501460022002300204A11EE
:100D8000012A02D1094C236806E0022A02D1074C4D
:100D9000236A01E0054C636A01F01F0201249440BC
:100DA0001C400CB1012000E0002010BD00100240EA
:100DB0000248406800F00C0070470000001002403C
:100DC00001460020034A506820F0F00008435060BC
:100DD00070470000001002401149096821F4803179
:100DE0000F4A11601146096821F480211160B0F5A5
:100DF000803F03D0B0F5802F0ED106E00849096886
:100E000041F48031064A116007E00549096841F460
:100E1000A021034A116000E000BF00BF704700003E
:100E20000010024001490860704700000000424283
:100E300001490860704700008004424201460020DA
:100E4000034A506820F4E060084350607047000097
:100E50000010024001460020034A506820F4605010
:100E600040EAC10050607047001002400149086626
:100E7000704700000000424201460020034A5068CB
:100E800020F003000843506070470000001002404B
:100E9000704700000A490978012904D0022903D0CB
:100EA000032903D101E001E000E000BF00BF00BF63
:100EB0000449096841F01001024A116000BF7047FF
:100EC0006C010020500100202DE9F04105460E463E
:100ED000174617B1012F34D118E0002405E0295D31
:100EE0001A48FFF7FFFB601C84B2B442F7DB012213
:100EF00040F22661164800F0C9F900BF15480068A5
:100F000040F004001349086000BF1CE000240CE01E
:100F1000295D0F4800F051FA00BF40210C4800F055
:100F20007EF90028F9D0601C84B2B442F0DB2819A5
:100F300010F8010C0A2803D14FF4FA6000F045FACA
:100F400001E000BF00BF00BFBDE8F0814C030020FE
:100F5000003801405001002010B500F001F810BD2C
:100F60000CB50020019000903348006840F48030B8
:100F70003149086000BF3048006800F4003000903C
:100F80000198401C0190009818B90198B0F5A06F25
:100F9000F1D12948006800F4003010B10120009020
:100FA00001E0002000900098012843D12348006808
:100FB00040F01000214908600846006820F0030056
:100FC00008600846006840F0020008601A4840685F
:100FD000194948600846406848600846406840F43F
:100FE000806048600846406820F47C1048600846ED
:100FF000406840F4E81048600846006840F080709F
:10100000086000BF0C48006800F000700028F9D0AC
:101010000948406820F003000749486008464068D6
:1010200040F00200486000BF0348406800F00C0038
:101030000828F9D10CBD0000001002400020024039
:1010400010B50648006806490968084010B1FFF766
:101050009FFD01E000F026FC10BD000050010020C3
:1010600054010020042808D14FF0E021096941F023
:1010700004014FF0E022116107E04FF0E02109691F
:1010800021F004014FF0E02211617047064800682A
:10109000401C0549086000BF0448006840F020007B
:1010A0000249086000BF7047300100205001002055
:1010B00010B51348006840F0010011490860084667
:1010C0004068104908400E494860084600680E49CB
:1010D00008400B4908600846006820F4802008603A
:1010E0000846406820F4FE0048604FF41F00886006
:1010F000FFF732FF4FF000600449086010BD0000A8
:10110000001002400000FFF8FFFFF6FE08ED00E0CF
:1011100010B540F225512F4800F08EF848B340F248
:1011200025512C4800F060F82B48FFF7B3FA80B146
:1011300000BF2A48006840F008002849086000BF46
:1011400000BF2748006840F001002549086000BF43
:1011500010BD204800F02CF9C4B221461E48FFF70C
:10116000C1FA00BF1D48006840F001001B4908603B
:101170002DE040F22661174800F05EF838B340F2E7
:101180002661144800F030F81648FFF779FAB0B13C
:1011900000BF1248006840F008001049086000BF16
:1011A00000BF0F48006840F002000D49086000BF12
:1011B000002240F22661074800F068F8C8E700BF47
:1011C0000648006840F004000449086000BF00BF02
:1011D000BEE7000000380140380300205001002025
:1011E0004C0100204C03002010B50022002340F6E3
:1011F0006A14A14200D100BF0A1201249440A3B294
:10120000DC43048010BD21B1828942F40052828106
:1012100004E082894DF6FF731A40828170470246CE
:101220000020B1F5007F00D100BF13880B400BB147
:10123000012000E00020704770B502460024002322
:101240000025002040F66A16B14200D100BFC1F36C
:10125000421501F01F03012606FA03F3012D02D106
:101260009689334006E0022D02D1168A334001E010
:10127000968A33400C12012606FA04F4168834408C
:1012800013B10CB1012000E0002070BDF0B50346A1
:10129000002400260025002040F66A17B94200D13C
:1012A00000BF1846C1F3421401F01F06012707FAD8
:1012B00006F5012C01D10C3004E0022C01D11030D4
:1012C00000E014301AB107682F43076002E0076896
:1012D000AF430760F0BD00002DE9F04786B005463A
:1012E0000E460024A24600BFA1460027B08900B1E7
:1012F00000BF2F462C8A4CF6FF700440F088044350
:101300002C82AC894EF6F3100440B0883189084332
:10131000718908430443AC81AC8A4FF6FF40044016
:10132000B0890443AC8201A8FFF7BAFC1F4887428A
:1013300002D1DDF810A001E0DDF80CA0A88900F4CE
:10134000004040B10AEBCA0000EB0A1031684900C6
:10135000B0FBF1F807E00AEBCA0000EB0A103168B5
:101360008900B0FBF1F86420B8FBF0F0040120091B
:10137000642101FB1089A88900F4004040B13220AB
:1013800000EBC900B0FBF1F000F00700044308E0F7
:10139000322000EB09106421B0FBF1F000F00F00E7
:1013A00004432C8106B0BDE8F087000000380140FE
:1013B00001468888C0F308007047C1F308028280A4
:1013C000704700BFFEE700BFFEE700213FE000BF1F
:1013D00000BF00BF00BF00BF00BF00BF00BF00BF15
:1013E00000BF00BF00BF00BF00BF00BF00BF00BF05
:1013F00000BF00BF00BF00BF00BF00BF00BF00BFF5
:1014000000BF00BF00BF00BF00BF00BF00BF00BFE4
:1014100000BF00BF00BF00BF00BF00BF00BF00BFD4
:1014200000BF00BF00BF00BF00BF00BF00BF00BFC4
:1014300000BF00BF00BF00BF00BF00BF00BF00BFB4
:1014400000BF00BF00BF00BF00BF00BF491C8142FA
:10145000BDD3704700B591B001210420FFF7DAFB3E
:101460000E20ADF82C0000208DF82F000BA942486B
:10147000FFF755F901210846FFF7BCFB3F48FEF78F
:10148000F3FF3F4800903F48019000200290032066
:10149000039000200490802005904000069080007A
:1014A0000790202008900002099000200A906946C9
:1014B0003248FFF79EF8012202213048FFF790F8EA
:1014C00001212E48FEF7C4FF01214802FFF7A2FBCD
:1014D0002B484C38FEF78AFE00200C9001208DF836
:1014E00034008DF835004FF460200E9000200F90EE
:1014F00003208DF840000CA921484C38FEF7B8FEB7
:101500000423012211461E484C38FEF7D9FE04235D
:10151000022211461A484C38FEF7D2FE0423032259
:10152000114617484C38FEF7CBFE012114484C38C1
:10153000FEF746FE012112484C38FEF74CFE1048DB
:101540004C38FEF719FF00BF0D484C38FEF786FEF9
:101550000028F9D10A484C38FEF71EFF00BF0848A2
:101560004C38FEF771FE0028F9D1012104484C38AF
:10157000FEF707FF11B000BD00080140080002405F
:101580004C2401407401002030B503460C4603B1E1
:101590000CB9002030BD184600F01DF802465D6809
:1015A00005E0A54201D10120F4E76D68521E002A32
:1015B000F7D10220EEE7024602B109B900207047D8
:1015C0004A60106808601068416011609068401CB3
:1015D00090600120F3E7014609B900207047886850
:1015E000FCE7014609B90020704749600960002006
:1015F00088600120F8E700B503460A4603B10AB93E
:10160000002000BDD2E900104860D2E90001086066
:101610009868401E9860104600F002F80120F0E73C
:10162000014609B900207047496009600120FAE7C6
:1016300073B504465A2035490870A5204870052026
:1016400088708220C870062C22D2DFE804F02103C3
:10165000090F151B10202D4908711120487118E041
:1016600010202A4908711320487112E010202749E0
:101670000871122048710CE01020244908711420D0
:10168000487106E01020214908710520487100E0EA
:101690007CBD00BF062C30D2DFE804F02F03040528
:1016A000061000BF00BF00BFBDF8040000121749BC
:1016B0008871BDF80400C87108251FE0BDF804005A
:1016C00048B9B82011498871B420C871CE20087279
:1016D000C22048720CE0BDF80400012808D1C020E7
:1016E0000A498871E420C871B6200872B320487294
:1016F000072006498870102500E0C9E700BF0122D5
:1017000029460248FFF7E0FB00BFC1E7CE030020F7
:1017100000BFEFF31081084672B6704710B504465B
:101720002048007810B1012839D11DE001211E4860
:10173000FFF780F8012813D11C480078401C1B4992
:1017400008700846007806280DDB0020087018494C
:1017500008801848FFF7D8F801201249087002E005
:101760000020124908701BE001210F48FFF762F8C2
:1017700088B911480078401C0F4908700846007865
:1017800006280BDB002008700A48FFF7D3F800207A
:101790000449087002E000200749087000E000BF1B
:1017A00000BF10BD72010020000C0140700100203C
:1017B0006E010020740300207101002010B500F0BC
:1017C00003F800F0C0F810BD30B585B0FFF742FA5D
:1017D0000120FFF72DFB0020FFF724FB4FF48030A2
:1017E000FFF7FAFA00BF3120FFF7C4FA0028FAD059
:1017F0001020FEF71DFF0220FEF728FF0120FFF753
:1018000035FB00BF3920FFF7B5FA0028FAD00220D7
:10181000FFF732FB00BFFFF7CBFA0828FBD100200F
:10182000FFF7CEFA0020FFF715FB4FF48060FFF7BB
:1018300005FB6846FFF734FA174901980860042051
:10184000FFF710FC144800684FF47A72B0FBF2F115
:10185000481EB0F1807F00D31BE0481E4FF0E0220D
:10186000506150170F22002804DB13071C0E0B4B8E
:101870001C5406E013071D0E094B00F00F04241F33
:101880001D5500BF00204FF0E0229061072010613D
:1018900000BF05B030BD00005801002000E400E0AA
:1018A00018ED00E07047000000B585B0012144F25A
:1018B0000400FFF7AFF918208DF8130003208DF80E
:1018C00012004FF40070ADF8100004A91048FEF7A4
:1018D00026FF4FF48060ADF8100004208DF813004F
:1018E00004A90B48FEF71BFF0A4B0FCB8DE80F0036
:1018F00069460948FFF7F0FC012240F225510648ED
:10190000FFF7C4FC01210448FFF77DFC05B000BDD2
:1019100000080140CC1900080038014010B5044609
:1019200005480088401C80B2034A1080014601200F
:10193000FFF77EFE10BD00006E01002000BF80F3A7
:10194000108800BF704708B500214FF00050FFF726
:1019500013F94FF4A060FFF705F925208DF800007A
:1019600000208DF801008DF8020001208DF80300A1
:101970006846FFF7BFF80B208DF8000002208DF8B5
:10198000010001208DF802008DF803006846FFF782
:10199000B1F808BD70B5054640210748FEF753FF72
:1019A00008B9012000E000200446224640210248F8
:1019B000FEF752FF70BD0000000C0140FEF7F1FC85
:1019C000FFF704F801E0FFF73BFBFCE700C2010072
:1019D0000000000000000C00000000001C1A0008BD
:1019E0000000002030010000440000084C1B0008EB
:1019F000300100206C00000044000008B81B000803
:101A00009C010020A402000060000008B81B000830
:101A10000018002000100000600000080000000016
:101A200000000000F10A0008D70A0008ED0A0008CB
:101A3000B3030008C313000800000000000000000A
:101A40000000000000000000910E00082F060008B2
:101A5000000000008D0B00088D100008BF0000087A
:101A6000BF000008BF000008BF000008BF0000085A
:101A7000BF000008BF000008BF000008BF0000084A
:101A8000BF000008BF000008B9030008BF0000083D
:101A9000BF000008BF000008BF000008BF0000082A
:101AA000BF000008BF000008BF000008BF0000081A
:101AB000BF000008BF000008BF000008BF0000080A
:101AC000BF000008BF000008BF000008BF000008FA
:101AD000BF000008BF000008BF000008BF000008EA
:101AE000BF000008BF000008BF000008BF000008DA
:101AF00011110008BF000008BF000008BF00000867
:101B0000BF000008BF000008BF000008BF000008B9
:101B1000BF000008BF000008BF000008BF000008A9
:101B2000BF000008BF000008BF000008BF00000899
:101B3000BF000008BF000008BF000008BF00000889
:101B4000BF000008BF000008BF0000080000000040
:101B5000950A0008610A0008AD0A0008650A000835
:101B6000950E0008CD0A00080000000000000000EB
:101B7000FFFF000000A24A04000000000000000077
:101B8000010203040607080901000000000001002B
:101B90000000000000000000000000000000000045
:101BA0000000000000000000010203040102030421
:081BB0000607080902040608FB
:0400000508000009E6
:00000001FF
